{
  "contractName": "Venom",
  "abi": [
    {
      "inputs": [
        {
          "internalType": "address",
          "name": "_proxyRegistryAddress",
          "type": "address"
        }
      ],
      "stateMutability": "nonpayable",
      "type": "constructor"
    },
    {
      "anonymous": false,
      "inputs": [
        {
          "indexed": true,
          "internalType": "address",
          "name": "owner",
          "type": "address"
        },
        {
          "indexed": true,
          "internalType": "address",
          "name": "approved",
          "type": "address"
        },
        {
          "indexed": true,
          "internalType": "uint256",
          "name": "tokenId",
          "type": "uint256"
        }
      ],
      "name": "Approval",
      "type": "event"
    },
    {
      "anonymous": false,
      "inputs": [
        {
          "indexed": true,
          "internalType": "address",
          "name": "owner",
          "type": "address"
        },
        {
          "indexed": true,
          "internalType": "address",
          "name": "operator",
          "type": "address"
        },
        {
          "indexed": false,
          "internalType": "bool",
          "name": "approved",
          "type": "bool"
        }
      ],
      "name": "ApprovalForAll",
      "type": "event"
    },
    {
      "anonymous": false,
      "inputs": [
        {
          "indexed": false,
          "internalType": "address",
          "name": "userAddress",
          "type": "address"
        },
        {
          "indexed": false,
          "internalType": "address payable",
          "name": "relayerAddress",
          "type": "address"
        },
        {
          "indexed": false,
          "internalType": "bytes",
          "name": "functionSignature",
          "type": "bytes"
        }
      ],
      "name": "MetaTransactionExecuted",
      "type": "event"
    },
    {
      "anonymous": false,
      "inputs": [
        {
          "indexed": true,
          "internalType": "address",
          "name": "previousOwner",
          "type": "address"
        },
        {
          "indexed": true,
          "internalType": "address",
          "name": "newOwner",
          "type": "address"
        }
      ],
      "name": "OwnershipTransferred",
      "type": "event"
    },
    {
      "anonymous": false,
      "inputs": [
        {
          "indexed": true,
          "internalType": "address",
          "name": "from",
          "type": "address"
        },
        {
          "indexed": true,
          "internalType": "address",
          "name": "to",
          "type": "address"
        },
        {
          "indexed": true,
          "internalType": "uint256",
          "name": "tokenId",
          "type": "uint256"
        }
      ],
      "name": "Transfer",
      "type": "event"
    },
    {
      "inputs": [],
      "name": "ERC712_VERSION",
      "outputs": [
        {
          "internalType": "string",
          "name": "",
          "type": "string"
        }
      ],
      "stateMutability": "view",
      "type": "function",
      "constant": true
    },
    {
      "inputs": [
        {
          "internalType": "address",
          "name": "to",
          "type": "address"
        },
        {
          "internalType": "uint256",
          "name": "tokenId",
          "type": "uint256"
        }
      ],
      "name": "approve",
      "outputs": [],
      "stateMutability": "nonpayable",
      "type": "function"
    },
    {
      "inputs": [
        {
          "internalType": "address",
          "name": "owner",
          "type": "address"
        }
      ],
      "name": "balanceOf",
      "outputs": [
        {
          "internalType": "uint256",
          "name": "",
          "type": "uint256"
        }
      ],
      "stateMutability": "view",
      "type": "function",
      "constant": true
    },
    {
      "inputs": [
        {
          "internalType": "address",
          "name": "userAddress",
          "type": "address"
        },
        {
          "internalType": "bytes",
          "name": "functionSignature",
          "type": "bytes"
        },
        {
          "internalType": "bytes32",
          "name": "sigR",
          "type": "bytes32"
        },
        {
          "internalType": "bytes32",
          "name": "sigS",
          "type": "bytes32"
        },
        {
          "internalType": "uint8",
          "name": "sigV",
          "type": "uint8"
        }
      ],
      "name": "executeMetaTransaction",
      "outputs": [
        {
          "internalType": "bytes",
          "name": "",
          "type": "bytes"
        }
      ],
      "stateMutability": "payable",
      "type": "function",
      "payable": true
    },
    {
      "inputs": [
        {
          "internalType": "uint256",
          "name": "tokenId",
          "type": "uint256"
        }
      ],
      "name": "getApproved",
      "outputs": [
        {
          "internalType": "address",
          "name": "",
          "type": "address"
        }
      ],
      "stateMutability": "view",
      "type": "function",
      "constant": true
    },
    {
      "inputs": [],
      "name": "getChainId",
      "outputs": [
        {
          "internalType": "uint256",
          "name": "",
          "type": "uint256"
        }
      ],
      "stateMutability": "view",
      "type": "function",
      "constant": true
    },
    {
      "inputs": [],
      "name": "getDomainSeperator",
      "outputs": [
        {
          "internalType": "bytes32",
          "name": "",
          "type": "bytes32"
        }
      ],
      "stateMutability": "view",
      "type": "function",
      "constant": true
    },
    {
      "inputs": [
        {
          "internalType": "address",
          "name": "user",
          "type": "address"
        }
      ],
      "name": "getNonce",
      "outputs": [
        {
          "internalType": "uint256",
          "name": "nonce",
          "type": "uint256"
        }
      ],
      "stateMutability": "view",
      "type": "function",
      "constant": true
    },
    {
      "inputs": [
        {
          "internalType": "address",
          "name": "owner",
          "type": "address"
        },
        {
          "internalType": "address",
          "name": "operator",
          "type": "address"
        }
      ],
      "name": "isApprovedForAll",
      "outputs": [
        {
          "internalType": "bool",
          "name": "",
          "type": "bool"
        }
      ],
      "stateMutability": "view",
      "type": "function",
      "constant": true
    },
    {
      "inputs": [
        {
          "internalType": "address",
          "name": "_to",
          "type": "address"
        }
      ],
      "name": "mintTo",
      "outputs": [],
      "stateMutability": "nonpayable",
      "type": "function"
    },
    {
      "inputs": [],
      "name": "name",
      "outputs": [
        {
          "internalType": "string",
          "name": "",
          "type": "string"
        }
      ],
      "stateMutability": "view",
      "type": "function",
      "constant": true
    },
    {
      "inputs": [],
      "name": "owner",
      "outputs": [
        {
          "internalType": "address",
          "name": "",
          "type": "address"
        }
      ],
      "stateMutability": "view",
      "type": "function",
      "constant": true
    },
    {
      "inputs": [
        {
          "internalType": "uint256",
          "name": "tokenId",
          "type": "uint256"
        }
      ],
      "name": "ownerOf",
      "outputs": [
        {
          "internalType": "address",
          "name": "",
          "type": "address"
        }
      ],
      "stateMutability": "view",
      "type": "function",
      "constant": true
    },
    {
      "inputs": [],
      "name": "renounceOwnership",
      "outputs": [],
      "stateMutability": "nonpayable",
      "type": "function"
    },
    {
      "inputs": [
        {
          "internalType": "address",
          "name": "from",
          "type": "address"
        },
        {
          "internalType": "address",
          "name": "to",
          "type": "address"
        },
        {
          "internalType": "uint256",
          "name": "tokenId",
          "type": "uint256"
        }
      ],
      "name": "safeTransferFrom",
      "outputs": [],
      "stateMutability": "nonpayable",
      "type": "function"
    },
    {
      "inputs": [
        {
          "internalType": "address",
          "name": "from",
          "type": "address"
        },
        {
          "internalType": "address",
          "name": "to",
          "type": "address"
        },
        {
          "internalType": "uint256",
          "name": "tokenId",
          "type": "uint256"
        },
        {
          "internalType": "bytes",
          "name": "_data",
          "type": "bytes"
        }
      ],
      "name": "safeTransferFrom",
      "outputs": [],
      "stateMutability": "nonpayable",
      "type": "function"
    },
    {
      "inputs": [
        {
          "internalType": "address",
          "name": "operator",
          "type": "address"
        },
        {
          "internalType": "bool",
          "name": "approved",
          "type": "bool"
        }
      ],
      "name": "setApprovalForAll",
      "outputs": [],
      "stateMutability": "nonpayable",
      "type": "function"
    },
    {
      "inputs": [
        {
          "internalType": "bytes4",
          "name": "interfaceId",
          "type": "bytes4"
        }
      ],
      "name": "supportsInterface",
      "outputs": [
        {
          "internalType": "bool",
          "name": "",
          "type": "bool"
        }
      ],
      "stateMutability": "view",
      "type": "function",
      "constant": true
    },
    {
      "inputs": [],
      "name": "symbol",
      "outputs": [
        {
          "internalType": "string",
          "name": "",
          "type": "string"
        }
      ],
      "stateMutability": "view",
      "type": "function",
      "constant": true
    },
    {
      "inputs": [
        {
          "internalType": "uint256",
          "name": "index",
          "type": "uint256"
        }
      ],
      "name": "tokenByIndex",
      "outputs": [
        {
          "internalType": "uint256",
          "name": "",
          "type": "uint256"
        }
      ],
      "stateMutability": "view",
      "type": "function",
      "constant": true
    },
    {
      "inputs": [
        {
          "internalType": "address",
          "name": "owner",
          "type": "address"
        },
        {
          "internalType": "uint256",
          "name": "index",
          "type": "uint256"
        }
      ],
      "name": "tokenOfOwnerByIndex",
      "outputs": [
        {
          "internalType": "uint256",
          "name": "",
          "type": "uint256"
        }
      ],
      "stateMutability": "view",
      "type": "function",
      "constant": true
    },
    {
      "inputs": [
        {
          "internalType": "uint256",
          "name": "_tokenId",
          "type": "uint256"
        }
      ],
      "name": "tokenURI",
      "outputs": [
        {
          "internalType": "string",
          "name": "",
          "type": "string"
        }
      ],
      "stateMutability": "pure",
      "type": "function",
      "constant": true
    },
    {
      "inputs": [],
      "name": "totalSupply",
      "outputs": [
        {
          "internalType": "uint256",
          "name": "",
          "type": "uint256"
        }
      ],
      "stateMutability": "view",
      "type": "function",
      "constant": true
    },
    {
      "inputs": [
        {
          "internalType": "address",
          "name": "from",
          "type": "address"
        },
        {
          "internalType": "address",
          "name": "to",
          "type": "address"
        },
        {
          "internalType": "uint256",
          "name": "tokenId",
          "type": "uint256"
        }
      ],
      "name": "transferFrom",
      "outputs": [],
      "stateMutability": "nonpayable",
      "type": "function"
    },
    {
      "inputs": [
        {
          "internalType": "address",
          "name": "newOwner",
          "type": "address"
        }
      ],
      "name": "transferOwnership",
      "outputs": [],
      "stateMutability": "nonpayable",
      "type": "function"
    },
    {
      "inputs": [],
      "name": "baseTokenURI",
      "outputs": [
        {
          "internalType": "string",
          "name": "",
          "type": "string"
        }
      ],
      "stateMutability": "pure",
      "type": "function",
      "constant": true
    },
    {
      "inputs": [],
      "name": "contractURI",
      "outputs": [
        {
          "internalType": "string",
          "name": "",
          "type": "string"
        }
      ],
      "stateMutability": "pure",
      "type": "function",
      "constant": true
    }
  ],
  "bytecode": "0x6080604052600a805460ff191690556000600f553480156200002057600080fd5b50604051620026af380380620026af833981016040819052620000439162000367565b6040518060400160405280600581526020016456656e6f6d60d81b81525060405180604001604052806002815260200161564d60f01b815250828282816000908051906020019062000097929190620002c1565b508051620000ad906001906020840190620002c1565b5050506000620000c26200014060201b60201c565b600d80546001600160a01b0319166001600160a01b038316908117909155604051919250906000907f8be0079c531659141344cd1fd0a4f28419497f9722a3daafe3b4186f6b6457e0908290a350600e80546001600160a01b0319166001600160a01b03831617905562000136836200015c565b50505050620003d6565b600062000157620001c060201b62000ff01760201c565b905090565b600a5460ff1615620001a55760405162461bcd60e51b815260206004820152600e60248201526d185b1c9958591e481a5b9a5d195960921b604482015260640160405180910390fd5b620001b0816200021f565b50600a805460ff19166001179055565b6000333014156200021957600080368080601f0160208091040260200160405190810160405280939291908181526020018383808284376000920191909152505050503601516001600160a01b031691506200021c9050565b50335b90565b6040518060800160405280604f815260200162002660604f9139805160209182012082519282019290922060408051808201825260018152603160f81b90840152805180840194909452838101919091527fc89efdaa54c0f20c7adf612882df0950f5a951637e0307cdcb4c672f298b8bc660608401523060808401524660a0808501919091528151808503909101815260c090930190528151910120600b55565b828054620002cf9062000399565b90600052602060002090601f016020900481019282620002f357600085556200033e565b82601f106200030e57805160ff19168380011785556200033e565b828001600101855582156200033e579182015b828111156200033e57825182559160200191906001019062000321565b506200034c92915062000350565b5090565b5b808211156200034c576000815560010162000351565b6000602082840312156200037a57600080fd5b81516001600160a01b03811681146200039257600080fd5b9392505050565b600181811c90821680620003ae57607f821691505b60208210811415620003d057634e487b7160e01b600052602260045260246000fd5b50919050565b61227a80620003e66000396000f3fe60806040526004361061013c5760003560e01c806301ffc9a71461014157806306fdde0314610176578063081812fc14610198578063095ea7b3146101c55780630c53c51c146101e75780630f7e5970146101fa57806318160ddd1461022757806320379ee51461024657806323b872dd1461025b5780632d0335ab1461027b5780632f745c59146102b15780633408e470146102d157806342842e0e146102e45780634f6ccce7146103045780636352211e1461032457806370a0823114610344578063715018a614610364578063755edd17146103795780638da5cb5b1461039957806395d89b41146103ae578063a22cb465146103c3578063b88d4fde146103e3578063c87b56dd14610403578063d547cfb714610423578063e8a3d48514610438578063e985e9c51461044d578063f2fde38b1461046d575b600080fd5b34801561014d57600080fd5b5061016161015c366004611db0565b61048d565b60405190151581526020015b60405180910390f35b34801561018257600080fd5b5061018b6104b8565b60405161016d9190611f4f565b3480156101a457600080fd5b506101b86101b3366004611e07565b61054a565b60405161016d9190611ec9565b3480156101d157600080fd5b506101e56101e0366004611d84565b6105d7565b005b61018b6101f5366004611d07565b6106fa565b34801561020657600080fd5b5061018b604051806040016040528060018152602001603160f81b81525081565b34801561023357600080fd5b506008545b60405190815260200161016d565b34801561025257600080fd5b50600b54610238565b34801561026757600080fd5b506101e5610276366004611c28565b6108e3565b34801561028757600080fd5b50610238610296366004611bd2565b6001600160a01b03166000908152600c602052604090205490565b3480156102bd57600080fd5b506102386102cc366004611d84565b61091b565b3480156102dd57600080fd5b5046610238565b3480156102f057600080fd5b506101e56102ff366004611c28565b6109b1565b34801561031057600080fd5b5061023861031f366004611e07565b6109cc565b34801561033057600080fd5b506101b861033f366004611e07565b610a5f565b34801561035057600080fd5b5061023861035f366004611bd2565b610ad6565b34801561037057600080fd5b506101e5610b5d565b34801561038557600080fd5b506101e5610394366004611bd2565b610be6565b3480156103a557600080fd5b506101b8610c47565b3480156103ba57600080fd5b5061018b610c56565b3480156103cf57600080fd5b506101e56103de366004611cd4565b610c65565b3480156103ef57600080fd5b506101e56103fe366004611c69565b610d63565b34801561040f57600080fd5b5061018b61041e366004611e07565b610da2565b34801561042f57600080fd5b5061018b610ddc565b34801561044457600080fd5b5061018b610dfc565b34801561045957600080fd5b50610161610468366004611bef565b610e1c565b34801561047957600080fd5b506101e5610488366004611bd2565b610ef0565b60006001600160e01b0319821663780e9d6360e01b14806104b257506104b28261104d565b92915050565b6060600080546104c7906120a9565b80601f01602080910402602001604051908101604052809291908181526020018280546104f3906120a9565b80156105405780601f1061051557610100808354040283529160200191610540565b820191906000526020600020905b81548152906001019060200180831161052357829003601f168201915b5050505050905090565b60006105558261109d565b6105bb5760405162461bcd60e51b815260206004820152602c60248201527f4552433732313a20617070726f76656420717565727920666f72206e6f6e657860448201526b34b9ba32b73a103a37b5b2b760a11b60648201526084015b60405180910390fd5b506000908152600460205260409020546001600160a01b031690565b60006105e282610a5f565b9050806001600160a01b0316836001600160a01b031614156106505760405162461bcd60e51b815260206004820152602160248201527f4552433732313a20617070726f76616c20746f2063757272656e74206f776e656044820152603960f91b60648201526084016105b2565b806001600160a01b03166106626110ba565b6001600160a01b0316148061067e575061067e816104686110ba565b6106eb5760405162461bcd60e51b815260206004820152603860248201527f4552433732313a20617070726f76652063616c6c6572206973206e6f74206f776044820152771b995c881b9bdc88185c1c1c9bdd995908199bdc88185b1b60421b60648201526084016105b2565b6106f583836110c9565b505050565b60408051606081810183526001600160a01b0388166000818152600c6020908152908590205484528301529181018690526107388782878787611137565b61078e5760405162461bcd60e51b815260206004820152602160248201527f5369676e657220616e64207369676e617475726520646f206e6f74206d6174636044820152600d60fb1b60648201526084016105b2565b6001600160a01b0387166000908152600c60205260409020546107b2906001611227565b6001600160a01b0388166000908152600c60205260409081902091909155517f5845892132946850460bff5a0083f71031bc5bf9aadcd40f1de79423eac9b10b9061080290899033908a90611edd565b60405180910390a1600080306001600160a01b0316888a60405160200161082a929190611e68565b60408051601f198184030181529082905261084491611e4c565b6000604051808303816000865af19150503d8060008114610881576040519150601f19603f3d011682016040523d82523d6000602084013e610886565b606091505b5091509150816108d75760405162461bcd60e51b815260206004820152601c60248201527b119d5b98dd1a5bdb8818d85b1b081b9bdd081cdd58d8d95cdcd99d5b60221b60448201526064016105b2565b98975050505050505050565b6108f46108ee6110ba565b8261123a565b6109105760405162461bcd60e51b81526004016105b290611fe9565b6106f58383836112fc565b600061092683610ad6565b82106109885760405162461bcd60e51b815260206004820152602b60248201527f455243373231456e756d657261626c653a206f776e657220696e646578206f7560448201526a74206f6620626f756e647360a81b60648201526084016105b2565b506001600160a01b03919091166000908152600660209081526040808320938352929052205490565b6106f583838360405180602001604052806000815250610d63565b60006109d760085490565b8210610a3a5760405162461bcd60e51b815260206004820152602c60248201527f455243373231456e756d657261626c653a20676c6f62616c20696e646578206f60448201526b7574206f6620626f756e647360a01b60648201526084016105b2565b60088281548110610a4d57610a4d612155565b90600052602060002001549050919050565b6000818152600260205260408120546001600160a01b0316806104b25760405162461bcd60e51b815260206004820152602960248201527f4552433732313a206f776e657220717565727920666f72206e6f6e657869737460448201526832b73a103a37b5b2b760b91b60648201526084016105b2565b60006001600160a01b038216610b415760405162461bcd60e51b815260206004820152602a60248201527f4552433732313a2062616c616e636520717565727920666f7220746865207a65604482015269726f206164647265737360b01b60648201526084016105b2565b506001600160a01b031660009081526003602052604090205490565b610b656110ba565b6001600160a01b0316610b76610c47565b6001600160a01b031614610b9c5760405162461bcd60e51b81526004016105b290611fb4565b600d546040516000916001600160a01b0316907f8be0079c531659141344cd1fd0a4f28419497f9722a3daafe3b4186f6b6457e0908390a3600d80546001600160a01b0319169055565b610bee6110ba565b6001600160a01b0316610bff610c47565b6001600160a01b031614610c255760405162461bcd60e51b81526004016105b290611fb4565b6000610c2f6114a7565b9050610c3b82826114b8565b610c436115f6565b5050565b600d546001600160a01b031690565b6060600180546104c7906120a9565b610c6d6110ba565b6001600160a01b0316826001600160a01b03161415610cca5760405162461bcd60e51b815260206004820152601960248201527822a9219b99189d1030b8383937bb32903a379031b0b63632b960391b60448201526064016105b2565b8060056000610cd76110ba565b6001600160a01b03908116825260208083019390935260409182016000908120918716808252919093529120805460ff191692151592909217909155610d1b6110ba565b6001600160a01b03167f17307eab39ab6107e8899845ad3d59bd9653f200f220920489ca2b5937696c3183604051610d57911515815260200190565b60405180910390a35050565b610d74610d6e6110ba565b8361123a565b610d905760405162461bcd60e51b81526004016105b290611fe9565b610d9c8484848461160d565b50505050565b6060610dac610ddc565b610db583611640565b604051602001610dc6929190611e9a565b6040516020818303038152906040529050919050565b60606040518060600160405280602e8152602001612217602e9139905090565b60606040518060600160405280602481526020016121b060249139905090565b600e5460405163c455279160e01b81526000916001600160a01b039081169190841690829063c455279190610e55908890600401611ec9565b60206040518083038186803b158015610e6d57600080fd5b505afa158015610e81573d6000803e3d6000fd5b505050506040513d601f19601f82011682018060405250810190610ea59190611dea565b6001600160a01b03161415610ebe5760019150506104b2565b6001600160a01b0380851660009081526005602090815260408083209387168352929052205460ff165b949350505050565b610ef86110ba565b6001600160a01b0316610f09610c47565b6001600160a01b031614610f2f5760405162461bcd60e51b81526004016105b290611fb4565b6001600160a01b038116610f945760405162461bcd60e51b815260206004820152602660248201527f4f776e61626c653a206e6577206f776e657220697320746865207a65726f206160448201526564647265737360d01b60648201526084016105b2565b600d546040516001600160a01b038084169216907f8be0079c531659141344cd1fd0a4f28419497f9722a3daafe3b4186f6b6457e090600090a3600d80546001600160a01b0319166001600160a01b0392909216919091179055565b60003330141561104757600080368080601f0160208091040260200160405190810160405280939291908181526020018383808284376000920191909152505050503601516001600160a01b0316915061104a9050565b50335b90565b60006001600160e01b031982166380ac58cd60e01b148061107e57506001600160e01b03198216635b5e139f60e01b145b806104b257506301ffc9a760e01b6001600160e01b03198316146104b2565b6000908152600260205260409020546001600160a01b0316151590565b60006110c4610ff0565b905090565b600081815260046020526040902080546001600160a01b0319166001600160a01b03841690811790915581906110fe82610a5f565b6001600160a01b03167f8c5be1e5ebec7d5bd14f71427d1e84f3dd0314c0f7b2291e5b200ac8c7c3b92560405160405180910390a45050565b60006001600160a01b03861661119d5760405162461bcd60e51b815260206004820152602560248201527f4e61746976654d6574615472616e73616374696f6e3a20494e56414c49445f5360448201526424a3a722a960d91b60648201526084016105b2565b60016111b06111ab8761173d565b6117ba565b6040805160008152602081018083529290925260ff851690820152606081018690526080810185905260a0016020604051602081039080840390855afa1580156111fe573d6000803e3d6000fd5b505050602060405103516001600160a01b0316866001600160a01b031614905095945050505050565b6000611233828461203a565b9392505050565b60006112458261109d565b6112a65760405162461bcd60e51b815260206004820152602c60248201527f4552433732313a206f70657261746f7220717565727920666f72206e6f6e657860448201526b34b9ba32b73a103a37b5b2b760a11b60648201526084016105b2565b60006112b183610a5f565b9050806001600160a01b0316846001600160a01b031614806112ec5750836001600160a01b03166112e18461054a565b6001600160a01b0316145b80610ee85750610ee88185610e1c565b826001600160a01b031661130f82610a5f565b6001600160a01b0316146113775760405162461bcd60e51b815260206004820152602960248201527f4552433732313a207472616e73666572206f6620746f6b656e2074686174206960448201526839903737ba1037bbb760b91b60648201526084016105b2565b6001600160a01b0382166113d95760405162461bcd60e51b8152602060048201526024808201527f4552433732313a207472616e7366657220746f20746865207a65726f206164646044820152637265737360e01b60648201526084016105b2565b6113e48383836117ea565b6113ef6000826110c9565b6001600160a01b0383166000908152600360205260408120805460019290611418908490612066565b90915550506001600160a01b038216600090815260036020526040812080546001929061144690849061203a565b909155505060008181526002602052604080822080546001600160a01b0319166001600160a01b0386811691821790925591518493918716917fddf252ad1be2c89b69c2b068fc378daa952ba7f163c4a11628f55a4df523b3ef91a4505050565b600f546000906110c4906001611227565b6001600160a01b03821661150e5760405162461bcd60e51b815260206004820181905260248201527f4552433732313a206d696e7420746f20746865207a65726f206164647265737360448201526064016105b2565b6115178161109d565b156115635760405162461bcd60e51b815260206004820152601c60248201527b115490cdcc8c4e881d1bdad95b88185b1c9958591e481b5a5b9d195960221b60448201526064016105b2565b61156f600083836117ea565b6001600160a01b038216600090815260036020526040812080546001929061159890849061203a565b909155505060008181526002602052604080822080546001600160a01b0319166001600160a01b03861690811790915590518392907fddf252ad1be2c89b69c2b068fc378daa952ba7f163c4a11628f55a4df523b3ef908290a45050565b600f8054906000611606836120e4565b9190505550565b6116188484846112fc565b611624848484846118a2565b610d9c5760405162461bcd60e51b81526004016105b290611f62565b6060816116645750506040805180820190915260018152600360fc1b602082015290565b8160005b811561168e5780611678816120e4565b91506116879050600a83612052565b9150611668565b6000816001600160401b038111156116a8576116a861216b565b6040519080825280601f01601f1916602001820160405280156116d2576020820181803683370190505b5090505b8415610ee8576116e7600183612066565b91506116f4600a866120ff565b6116ff90603061203a565b60f81b81838151811061171457611714612155565b60200101906001600160f81b031916908160001a905350611736600a86612052565b94506116d6565b60006040518060800160405280604381526020016121d4604391398051602091820120835184830151604080870151805190860120905161179d950193845260208401929092526001600160a01b03166040830152606082015260800190565b604051602081830303815290604052805190602001209050919050565b60006117c5600b5490565b60405161190160f01b602082015260228101919091526042810183905260620161179d565b6001600160a01b0383166118455761184081600880546000838152600960205260408120829055600182018355919091527ff3f7a9fe364faab93b216da50a3214154f22a0a2b415b23a84c8169e8b636ee30155565b611868565b816001600160a01b0316836001600160a01b0316146118685761186883826119b6565b6001600160a01b03821661187f576106f581611a53565b826001600160a01b0316826001600160a01b0316146106f5576106f58282611b02565b60006001600160a01b0384163b156119ab57836001600160a01b031663150b7a026118cb6110ba565b8786866040518563ffffffff1660e01b81526004016118ed9493929190611f12565b602060405180830381600087803b15801561190757600080fd5b505af1925050508015611937575060408051601f3d908101601f1916820190925261193491810190611dcd565b60015b611991573d808015611965576040519150601f19603f3d011682016040523d82523d6000602084013e61196a565b606091505b5080516119895760405162461bcd60e51b81526004016105b290611f62565b805181602001fd5b6001600160e01b031916630a85bd0160e11b149050610ee8565b506001949350505050565b600060016119c384610ad6565b6119cd9190612066565b600083815260076020526040902054909150808214611a20576001600160a01b03841660009081526006602090815260408083208584528252808320548484528184208190558352600790915290208190555b5060009182526007602090815260408084208490556001600160a01b039094168352600681528383209183525290812055565b600854600090611a6590600190612066565b60008381526009602052604081205460088054939450909284908110611a8d57611a8d612155565b906000526020600020015490508060088381548110611aae57611aae612155565b6000918252602080832090910192909255828152600990915260408082208490558582528120556008805480611ae657611ae661213f565b6001900381819060005260206000200160009055905550505050565b6000611b0d83610ad6565b6001600160a01b039093166000908152600660209081526040808320868452825280832085905593825260079052919091209190915550565b600082601f830112611b5757600080fd5b81356001600160401b0380821115611b7157611b7161216b565b604051601f8301601f19908116603f01168101908282118183101715611b9957611b9961216b565b81604052838152866020858801011115611bb257600080fd5b836020870160208301376000602085830101528094505050505092915050565b600060208284031215611be457600080fd5b813561123381612181565b60008060408385031215611c0257600080fd5b8235611c0d81612181565b91506020830135611c1d81612181565b809150509250929050565b600080600060608486031215611c3d57600080fd5b8335611c4881612181565b92506020840135611c5881612181565b929592945050506040919091013590565b60008060008060808587031215611c7f57600080fd5b8435611c8a81612181565b93506020850135611c9a81612181565b92506040850135915060608501356001600160401b03811115611cbc57600080fd5b611cc887828801611b46565b91505092959194509250565b60008060408385031215611ce757600080fd5b8235611cf281612181565b915060208301358015158114611c1d57600080fd5b600080600080600060a08688031215611d1f57600080fd5b8535611d2a81612181565b945060208601356001600160401b03811115611d4557600080fd5b611d5188828901611b46565b9450506040860135925060608601359150608086013560ff81168114611d7657600080fd5b809150509295509295909350565b60008060408385031215611d9757600080fd5b8235611da281612181565b946020939093013593505050565b600060208284031215611dc257600080fd5b813561123381612199565b600060208284031215611ddf57600080fd5b815161123381612199565b600060208284031215611dfc57600080fd5b815161123381612181565b600060208284031215611e1957600080fd5b5035919050565b60008151808452611e3881602086016020860161207d565b601f01601f19169290920160200192915050565b60008251611e5e81846020870161207d565b9190910192915050565b60008351611e7a81846020880161207d565b60609390931b6001600160601b0319169190920190815260140192915050565b60008351611eac81846020880161207d565b835190830190611ec081836020880161207d565b01949350505050565b6001600160a01b0391909116815260200190565b6001600160a01b03848116825283166020820152606060408201819052600090611f0990830184611e20565b95945050505050565b6001600160a01b0385811682528416602082015260408101839052608060608201819052600090611f4590830184611e20565b9695505050505050565b6020815260006112336020830184611e20565b60208082526032908201527f4552433732313a207472616e7366657220746f206e6f6e20455243373231526560408201527131b2b4bb32b91034b6b83632b6b2b73a32b960711b606082015260800190565b6020808252818101527f4f776e61626c653a2063616c6c6572206973206e6f7420746865206f776e6572604082015260600190565b60208082526031908201527f4552433732313a207472616e736665722063616c6c6572206973206e6f74206f6040820152701ddb995c881b9bdc88185c1c1c9bdd9959607a1b606082015260800190565b6000821982111561204d5761204d612113565b500190565b60008261206157612061612129565b500490565b60008282101561207857612078612113565b500390565b60005b83811015612098578181015183820152602001612080565b83811115610d9c5750506000910152565b600181811c908216806120bd57607f821691505b602082108114156120de57634e487b7160e01b600052602260045260246000fd5b50919050565b60006000198214156120f8576120f8612113565b5060010190565b60008261210e5761210e612129565b500690565b634e487b7160e01b600052601160045260246000fd5b634e487b7160e01b600052601260045260246000fd5b634e487b7160e01b600052603160045260246000fd5b634e487b7160e01b600052603260045260246000fd5b634e487b7160e01b600052604160045260246000fd5b6001600160a01b038116811461219657600080fd5b50565b6001600160e01b03198116811461219657600080fdfe68747470733a2f2f76656e6f6d2d6f70656e7365612e6865726f6b756170702e636f6d2f4d6574615472616e73616374696f6e2875696e74323536206e6f6e63652c616464726573732066726f6d2c62797465732066756e6374696f6e5369676e61747572652968747470733a2f2f6372656174757265732d6170692e6f70656e7365612e696f2f6170692f63726561747572652fa264697066735822122019f685369b9bb04a3e8e6e8d1f9563e39848d6b17d3bcafe382a34e649e71f9664736f6c63430008060033454950373132446f6d61696e28737472696e67206e616d652c737472696e672076657273696f6e2c6164647265737320766572696679696e67436f6e74726163742c627974657333322073616c7429",
  "immutableReferences": {},
  "source": "// SPDX-License-Identifier: MIT\n\npragma solidity ^0.8.0;\n\nimport \"./ERC721Tradable.sol\";\n\n/**\n * @title Creature\n * Creature - a contract for my non-fungible creatures.\n */\ncontract Venom is ERC721Tradable {\n    constructor(address _proxyRegistryAddress)\n        ERC721Tradable(\"Venom\", \"VM\", _proxyRegistryAddress)\n    {}\n\n    function baseTokenURI() override public pure returns (string memory) {\n        return \"https://creatures-api.opensea.io/api/creature/\";\n    }\n\n    function contractURI() public pure returns (string memory) {\n        return \"https://venom-opensea.herokuapp.com/\";\n    }\n}\n",
  "sourcePath": "/home/venom/Desktop/opensea-creatures (copy)/contracts/Venom.sol",
  "compiler": {
    "name": "solc",
    "version": "0.8.6+commit.11564f7e.Emscripten.clang"
  },
  "schemaVersion": "3.4.1",
  "updatedAt": "2021-07-16T15:11:57.239Z",
  "networkType": "ethereum",
  "devdoc": {
    "kind": "dev",
    "methods": {
      "approve(address,uint256)": {
        "details": "See {IERC721-approve}."
      },
      "balanceOf(address)": {
        "details": "See {IERC721-balanceOf}."
      },
      "getApproved(uint256)": {
        "details": "See {IERC721-getApproved}."
      },
      "mintTo(address)": {
        "details": "Mints a token to an address with a tokenURI.",
        "params": {
          "_to": "address of the future owner of the token"
        }
      },
      "name()": {
        "details": "See {IERC721Metadata-name}."
      },
      "owner()": {
        "details": "Returns the address of the current owner."
      },
      "ownerOf(uint256)": {
        "details": "See {IERC721-ownerOf}."
      },
      "renounceOwnership()": {
        "details": "Leaves the contract without owner. It will not be possible to call `onlyOwner` functions anymore. Can only be called by the current owner. NOTE: Renouncing ownership will leave the contract without an owner, thereby removing any functionality that is only available to the owner."
      },
      "safeTransferFrom(address,address,uint256)": {
        "details": "See {IERC721-safeTransferFrom}."
      },
      "safeTransferFrom(address,address,uint256,bytes)": {
        "details": "See {IERC721-safeTransferFrom}."
      },
      "setApprovalForAll(address,bool)": {
        "details": "See {IERC721-setApprovalForAll}."
      },
      "supportsInterface(bytes4)": {
        "details": "See {IERC165-supportsInterface}."
      },
      "symbol()": {
        "details": "See {IERC721Metadata-symbol}."
      },
      "tokenByIndex(uint256)": {
        "details": "See {IERC721Enumerable-tokenByIndex}."
      },
      "tokenOfOwnerByIndex(address,uint256)": {
        "details": "See {IERC721Enumerable-tokenOfOwnerByIndex}."
      },
      "totalSupply()": {
        "details": "See {IERC721Enumerable-totalSupply}."
      },
      "transferFrom(address,address,uint256)": {
        "details": "See {IERC721-transferFrom}."
      },
      "transferOwnership(address)": {
        "details": "Transfers ownership of the contract to a new account (`newOwner`). Can only be called by the current owner."
      }
    },
    "title": "Creature Creature - a contract for my non-fungible creatures.",
    "version": 1
  },
  "userdoc": {
    "kind": "user",
    "methods": {
      "isApprovedForAll(address,address)": {
        "notice": "Override isApprovedForAll to whitelist user's OpenSea proxy accounts to enable gas-less listings."
      }
    },
    "version": 1
  }
}